:10010C00439850438920EF8EF012008E013412C0B8
:10011C0001391C20013E2580014338400148708084
:10012C00014DE10000000153758DFA801A758DFCAC
:10013C008015758DFD8010758DFE800B758DFF8083
:0A014C0006758DFF758780D28E22A4
:0801FC008F993099FDC2992290
:080204003098FDC298AF992269
:1001CB008B188A19891AAB18AA19A91A120026605A
:1001DB0013051AE51A7002051914F9120026FF12FD
:0501EB0001FC80E2228E
:060156008B158A168917C3
:10015C00E4FEEEC39D5021120204AB15AA16A9179A
:10016C008E82758300EF12006C8E827583001200F4
:10017C003F640D60030E80DAAB15AA16A917AF0603
:09018C008F82758300E402006C0F
:05020C00D2ACD2AF22CC
:030023000200BB1D
:1000BB00C0E0C0F0C083C082C0D075D000C000C00B
:1000CB0001C002C003C004C005C006C007309816AB
:1000DB00C29874082514F8A699AF14051474082F48
:1000EB00F8E6FF1201FCD007D006D005D004D003F0
:1000FB00D002D001D000D0D0D082D083D0F0D0E0CD
:01010B0032C1
:10000300456E74657220537472696E673A0D0A0007
:0E001300476976656E20446174613A0D0A00FB
:100195007F807E2512010C12020C7BFF7A00790309
:1001A5001201CBE514640C600974072514F8E6B454
:1001B5000DF17BFF7A0079131201CB7B007A007970
:0601C500081201CB80DDF1
:030000000201F00A
:0C01F000787FE4F6D8FD75811A020195B5
:10002600BB010689828A83E0225002E722BBFE02D8
:09003600E32289828A83E493220B
:10003F00BB010CE58229F582E5833AF583E0225076
:10004F0006E92582F8E622BBFE06E92582F8E222C0
:0D005F00E58229F582E5833AF583E49322DA
:10006C00F8BB010DE58229F582E5833AF583E8F0CA
:10007C00225006E92582C8F622BBFE05E92582C876
:02008C00F2225E
:10008E00D083D082F8E4937012740193700DA3A301
:10009E0093F8740193F5828883E473740293B5F038
:0D00AE00067403936860E9A3A3A3A380D8A0
:00000001FF
