:10000300759850438920EF8EF012004D002B12C0DB
:1000130000301C2000352580003A3840003F7080B6
:100023000044E1000000004A758DFA801A758DFCCA
:100033008015758DFD8010758DFE800B758DFF808D
:0A00430006758DFF758780D28E22AE
:080094008F993099FDC29922F9
:08009C003098FDC298AF9922D3
:0E007A007F807E251200037F4112009480FEDD
:0300000002008873
:0C008800787FE4F6D8FD75810702007A4D
:10004D00D083D082F8E4937012740193700DA3A342
:10005D0093F8740193F5828883E473740293B5F079
:0D006D00067403936860E9A3A3A3A380D8E1
:00000001FF
