:1005ED00D3EF9400EE9400400F7DFADDFE7DF7DD34
:0805FD00FEEF1F70EB1E80E809
:0106050022D2
:10061F008F80C2B4C2B5D2B67F027E001205EDC282
:02062F00B622F1
:100606007F0212061F7F3812061F7F0E12061F7FFB
:090616000612061F7F0102061FF7
:100631008F80D2B4C2B5D2B67F027E001205EDC260
:02064100B622DF
:1005CA008B488A49894AAB48AA49A94A120360FF5B
:1005DA0060101206317401254AF54AE43549F54995
:0305EA0080E42288
:040424008E108F1196
:10042800E4F512F513F514F515C3E510648094800E
:1004380050107F2D120631C3E49511F511E4951083
:10044800F510E511451070057F30020631E51145BC
:100458001060370515E51570020514AE10AF117C54
:10046800007D0A12038BAA04AB05AE12AF137C0001
:100478007D0A120379EF2BF513EE3AF512AE10AFA1
:100488001112038B8E108F1180C3E4FBE515451400
:10049800602FAE12AF137C007D0A12038BED24305F
:1004A800FF74162BF8A607E515151570021514AE7E
:1004B80012AF137C007D0A12038B8E128F130B80F0
:0F04C800CB74162BF8E4F6FB7A0079161205CAEE
:0104D7002202
:080583008F0D8E0C8D0B8C0A0C
:10058B001202DF8E0E8F0F1204247F2E120631AC57
:10059B000EAD0FEC1202A6AB0DAA0CA90BA80A12FA
:1005AB000006E4FBFA79C878421200FB1202DF8ED8
:0F05BB000E8F0FE50F2401FFE4350EFE0204241E
:1004D800E4FDFCC293C290D292D290C290D292D242
:1004E80090C290D292D290C290C292D290C290C240
:1004F80092D290C290D292D290C290D292D2907B55
:100508000BC29030911574017E00A803088005C3C2
:1005180033CE33CED8F94205EE4204D2901BC3EB5A
:0C0528006480948050DBD293AE04AF05D9
:0105340022A4
:100535001206061204D88E088F097F0112061F7F46
:100545008012061FAF09AE081204247FC012061FD1
:10055500AC08AD09E41202A6E4FBFA79A0784012D2
:1005650000FB7B007AF0797F78451202041205833F
:0E0575007F561206317F647E001205ED80B5C0
:1000030002034BE86480F8E933E83360110460F0DD
:10001300ED33EC337009E8FCE9FDEAFEEBFF220463
:1000230060DED3EB9FEA9EE99DE8C2E78CF0C2F75E
:1000330095F0400CE8CCF8E9CDF9EACEFAEBCFFB2A
:1000430012031685D0F05804700320D5B3E804706A
:10005300075002B2D502035592D5EC0460F7E4CC05
:10006300C0E0C398F8603B94186008400DD0E0FBF3
:1000730002032DE4FBFAC9FC8028E830E406E4C956
:10008300FBE4CAFCE830E305E4C9CACBFCE8540747
:100093006010F8C3E913F9EA13FAEB13FBEC13FC52
:1000A300D8F130F52FC3E49CFCEF9BFFEE9AFEEDF5
:1000B30099FDD0E0FBEF4E4D4C701222DB0302039F
:1000C30052EC2CFCEF33FFEE33FEED33FDED30E766
:1000D300EB02032DEF2BFFEE3AFEED39FDD0E0FBF3
:1000E30050130BBB0003020355ED13FDEE13FEEF9C
:0800F30013FFEC13FC02032DC6
:1000FB00EC4D6011E8497017ED33EC3304600DE4FF
:10010B00FCFFFEFD22E933E8330470F802034B12C7
:10011B00031658046009E4CC2481500628500902C8
:10012B000355284003020352C0E0EB4A7044B980E8
:10013B0006D0E0FB020341EF4E701CBD8008EBFFC5
:10014B00EAFEE9FD80EBE98DF0A4FEE5F00201E4A7
:10015B00E9CDF9EAFEEBFFEF89F0A4FCE5F0CE89DF
:10016B00F0A42EFFE435F0CD89F0A42DFEE435F09C
:10017B008067EF4E7005BD80D780C3EF8BF0A4ACCA
:10018B00F0EE8BF0A42CFCE435F0F8EF8AF0A42C05
:10019B00E5F038FCE433CB8DF0A42CFCE5F03BF818
:1001AB00EE8AF0A42CFCE5F038F8E433CF89F0A408
:1001BB002CFCE5F038CF3400CE89F0A42FFFE5F00E
:1001CB003EFEE433C98DF0A42EFEE5F039CD8AF066
:1001DB00A42FFFE5F03EFEE43DFD33D0E0FB5007DE
:1001EB000BBB000F020355EC2CFCEF33FFEE33FE81
:0601FB00ED33FD02032DAF
:10020100020355EC5D046005E85904700302034BD9
:10021100120316580460F6EC4860F2EC7004FDFE1F
:10022100FF22C860DB2481C85009C39860025006D0
:100231000203529850CAF582E9294B4A7005AB82F4
:1002410002034175F0007C1A7880C3EF9BEE9AEDB2
:1002510099400DC3EF9BFFEE9AFEED99FDE842F048
:10026100DC23ACF0D0E0FFD0E0FED0E0FDAB82209B
:10027100E7101BEB60BAEC2CFCEF33FFEE33FEED25
:1002810033FD02032DE803F830E705C0F075F000F7
:10029100EF2FFFEE33FEED33FD40B830E7C280AA09
:1002A10075F020800E75F010800575F0087D007ED8
:1002B100007F003392D530D5031203C1EC334010D7
:1002C100EF33FFEE33FEED33FDEC33FCD5F0ED22E1
:0E02D100E5F0247EA2D513CC92E7CDCEFF221D
:1002DF00EDD2E7CD33EC3392D524814006E4FFFE17
:1002EF00FDFC22FCE4CFCECDCC24E0501174FF8076
:1002FF00EDC3CC13CCCD13CDCE13CECF13CF047013
:07030F00F030D5DE0203C14E
:10031600E9D2E7C933E833F892D5EDD2E7CD33EC2D
:0703260033FC5002B2D522A6
:10032D00EC30E7100FBF000C0EBE00080DBD000431
:10033D000BEB6014A2D5EB13FCED92E7FD2274FFDD
:10034D00FCFDFEFF22E480F8A2D574FF13FC7D8036
:03035D00E480EF4A
:03000000020643B2
:0C064300787FE4F6D8FD75814A02053589
:10036000BB010689828A83E0225002E722BBFE029B
:09037000E32289828A83E49322CE
:10037900EF8DF0A4A8F0CF8CF0A428CE8DF0A42E98
:02038900FE2252
:10038B00C2D5EC30E709B2D5E4C39DFDE49CFCEE8D
:10039B0030E715B2D5E4C39FFFE49EFE1203CFC333
:1003AB00E49DFDE49CFC80031203CF30D507C3E42E
:0603BB009FFFE49EFE22FC
:0E03C100C3E49FFFE49EFEE49DFDE49CFC224D
:1003CF00BC000BBE0029EF8DF084FFADF022E4CC12
:1003DF00F875F008EF2FFFEE33FEEC33FCEE9DECDB
:1003EF00984005FCEE9DFE0FD5F0E9E4CEFD22ED21
:1003FF00F8F5F0EE8420D21CFEADF075F008EF2F6B
:10040F00FFED33FD4007985006D5F0F222C398FD5B
:05041F000FD5F0EA22F8
:00000001FF
