:1001BB008F80C2B4C2B5D2B67F027E001201A2C23A
:0201CB00B6225A
:100189007F021201BB7F381201BB7F0E1201BB7FB8
:09019900061201BB7F010201BB4B
:1001CD008F80D2B4C2B5D2B67F027E001201A2C218
:0201DD00B62248
:100146008B158A168917AB15AA16A917120003FF75
:1001560060101201CD74012517F517E43516F51652
:0301660080E42210
:10009800759850438920EF8EF012006B00C012C093
:1000A80000C51C2000CA258000CF384000D47080CD
:1000B80000D9E100000000DF758DFA801A758DFC0B
:1000C8008015758DFD8010758DFE800B758DFF80F8
:0A00D80006758DFF758780D28E2219
:0801EB008F993099FDC29922A1
:0801F3003098FDC298AF99227B
:100121008B188A19891AAB18AA19A91A1200036027
:1001310013051AE51A7002051914F9120003FF12CA
:0501410001EB80E22249
:0600E2008B158A16891738
:1000E800E4FEEEC39D50211201F3AB15AA16A91721
:1000F8008E82758300EF1200498E8275830012008C
:100108001C640D60030E80DAAB15AA16A917AF069A
:090118008F82758300E4020049A6
:100169007F807E251200981201897B007A00790828
:100179007D0C1200E27B007A00790812014680EAC0
:1001A200D3EF9400EE9400400F7DFADDFE7DF7DD83
:0801B200FEEF1F70EB1E80E858
:0101BA002222
:030000000201DF1B
:0C01DF00787FE4F6D8FD75811A020169F2
:10000300BB010689828A83E0225002E722BBFE02FB
:09001300E32289828A83E493222E
:10001C00BB010CE58229F582E5833AF583E0225099
:10002C0006E92582F8E622BBFE06E92582F8E222E3
:0D003C00E58229F582E5833AF583E49322FD
:10004900F8BB010DE58229F582E5833AF583E8F0ED
:10005900225006E92582C8F622BBFE05E92582C899
:02006900F22281
:10006B00D083D082F8E4937012740193700DA3A324
:10007B0093F8740193F5828883E473740293B5F05B
:0D008B00067403936860E9A3A3A3A380D8C3
:00000001FF
