:10065E00D3EF9400EE9400400F7DFADDFE7DF7DDC2
:08066E00FEEF1F70EB1E80E897
:010676002261
:1004D200EF14602D14604A14606724036003020560
:1004E20064BB010E7401A805088002C333D8FC4224
:1004F20080227401A805088002C333D8FCF452801C
:1005020022BB010E7401A805088002C333D8FC4245
:1005120090227401A805088002C333D8FCF45290DB
:1005220022BB010E7401A805088002C333D8FC4225
:10053200A0227401A805088002C333D8FCF452A09B
:1005420022BB010E7401A805088002C333D8FC4205
:10055200B022AF057401A807088002C333D8FCF4A7
:0305620052B02272
:10043800EF14602E14604C14606A240360030204F5
:10044800CF74017E00A805088005C333CE33CED80B
:10045800F9FFAB80EF5B60047F0180027F00AC078F
:10046800806574017E00A805088005C333CE33CEAD
:10047800D8F9FFAB90EF5B60047F0180027F00AC8E
:1004880007804474017E00A805088005C333CE3375
:10049800CED8F9FFABA0EF5B60047F0180027F003C
:1004A800AC078023AF0574017E00A807088005C348
:1004B80033CE33CED8F9FFADB0EDFBEF5B60047FF0
:0904C8000180027F00AC07AF04C3
:0104D1002208
:100690008F80C2B4C2B5D2B67F027E0012065EC29F
:0206A000B62280
:100677007F021206907F381206907F0E1206907F37
:09068700061206907F01020690A4
:1006A2008F80D2B4C2B5D2B67F027E0012065EC27D
:0206B200B6226E
:10063B008B448A458946AB44AA45A9461202C0FFA2
:10064B0060101206A274012546F546E43545F545C2
:03065B0080E42216
:040384008E0C8F0D3F
:10038800E4F50EF50FF510F511C3E50C64809480C3
:1003980050107F2D1206A2C3E4950DF50DE4950CBF
:1003A800F50CE50D450C70057F300206A2E50D45FC
:1003B8000C60370511E51170020510AE0CAF0D7C0D
:1003C800007D0A1202EBAA04AB05AE0EAF0F7C004B
:1003D8007D0A1202D9EF2BF50FEE3AF50EAE0CAFEF
:1003E8000D1202EB8E0C8F0D80C3E4FBE511451056
:1003F800602FAE0EAF0F7C007D0A1202EBED2430A9
:10040800FF74122BF8A607E511151170021510AE2E
:100418000EAF0F7C007D0A1202EB8E0E8F0F0B8041
:0F042800CB74122BF8E4F6FB7A00791212063B24
:0104370022A2
:0805C3008F4A8E498D488C47D8
:1005CB0012023F8E4B8F4C1203847F2E1206A2AC6D
:1005DB004BAD4CEC120206AB4AAA49A948A84712EC
:1005EB000006E4FBFA79C878421200FB12023F8E38
:0F05FB004B8F4CE54C2401FFE4354BFE0203848B
:04060A008E098F0ABC
:10060E007FC0120690750B0FE50AAE09A80B088085
:10061E0006CEA2E713CE13D8F87E005401FF1203C4
:0C062E0084150BC3E50B6480948050DC45
:01063A00229D
:100565001206777F0C1206907F80120690E4FFFE3C
:10057500120384E4F508E508D3943B503A7D077FE0
:1005850002120438EF701E7FC8FE12065E05087F52
:1005950080120690AF087E001203847D077F021249
:1005A5000438EF60F67D067F02120438EF70C7AF9E
:0E05B50008FE12060A80BF7F0112069080AA7F
:100003000202ABE86480F8E933E83360110460F07E
:10001300ED33EC337009E8FCE9FDEAFEEBFF220463
:1000230060DED3EB9FEA9EE99DE8C2E78CF0C2F75E
:1000330095F0400CE8CCF8E9CDF9EACEFAEBCFFB2A
:1000430012027685D0F05804700320D5B3E804700B
:10005300075002B2D50202B592D5EC0460F7E4CCA6
:10006300C0E0C398F8603B94186008400DD0E0FBF3
:1000730002028DE4FBFAC9FC8028E830E406E4C9F7
:10008300FBE4CAFCE830E305E4C9CACBFCE8540747
:100093006010F8C3E913F9EA13FAEB13FBEC13FC52
:1000A300D8F130F52FC3E49CFCEF9BFFEE9AFEEDF5
:1000B30099FDD0E0FBEF4E4D4C701222DB030202A0
:1000C300B2EC2CFCEF33FFEE33FEED33FDED30E706
:1000D300EB02028DEF2BFFEE3AFEED39FDD0E0FB94
:1000E30050130BBB00030202B5ED13FDEE13FEEF3D
:0800F30013FFEC13FC02028D67
:1000FB00EC4D6011E8497017ED33EC3304600DE4FF
:10010B00FCFFFEFD22E933E8330470F80202AB1268
:10011B00027658046009E4CC248150062850090269
:10012B0002B52840030202B2C0E0EB4A7044B9802A
:10013B0006D0E0FB0202A1EF4E701CBD8008EBFF66
:10014B00EAFEE9FD80EBE98DF0A4FEE5F00201E4A7
:10015B00E9CDF9EAFEEBFFEF89F0A4FCE5F0CE89DF
:10016B00F0A42EFFE435F0CD89F0A42DFEE435F09C
:10017B008067EF4E7005BD80D780C3EF8BF0A4ACCA
:10018B00F0EE8BF0A42CFCE435F0F8EF8AF0A42C05
:10019B00E5F038FCE433CB8DF0A42CFCE5F03BF818
:1001AB00EE8AF0A42CFCE5F038F8E433CF89F0A408
:1001BB002CFCE5F038CF3400CE89F0A42FFFE5F00E
:1001CB003EFEE433C98DF0A42EFEE5F039CD8AF066
:1001DB00A42FFFE5F03EFEE43DFD33D0E0FB5007DE
:1001EB000BBB000F0202B5EC2CFCEF33FFEE33FE22
:0601FB00ED33FD02028D50
:1002010075F020800E75F010800575F0087D007E78
:10021100007F003392D530D503120321EC33401017
:10022100EF33FFEE33FEED33FDEC33FCD5F0ED2281
:0E023100E5F0247EA2D513CC92E7CDCEFF22BD
:10023F00EDD2E7CD33EC3392D524814006E4FFFEB7
:10024F00FDFC22FCE4CFCECDCC24E0501174FF8016
:10025F00EDC3CC13CCCD13CDCE13CECF13CF0470B3
:07026F00F030D5DE0203218F
:10027600E9D2E7C933E833F892D5EDD2E7CD33ECCE
:0702860033FC5002B2D52247
:10028D00EC30E7100FBF000C0EBE00080DBD0004D2
:10029D000BEB6014A2D5EB13FCED92E7FD2274FF7E
:1002AD00FCFDFEFF22E480F8A2D574FF13FC7D80D7
:0302BD00E480EFEB
:030000000206B441
:0C06B400787FE4F6D8FD75814C020565E6
:1002C000BB010689828A83E0225002E722BBFE023C
:0902D000E32289828A83E493226F
:1002D900EF8DF0A4A8F0CF8CF0A428CE8DF0A42E39
:0202E900FE22F3
:1002EB00C2D5EC30E709B2D5E4C39DFDE49CFCEE2E
:1002FB0030E715B2D5E4C39FFFE49EFE12032FC374
:10030B00E49DFDE49CFC800312032F30D507C3E46E
:06031B009FFFE49EFE229C
:0E032100C3E49FFFE49EFEE49DFDE49CFC22ED
:10032F00BC000BBE0029EF8DF084FFADF022E4CCB2
:10033F00F875F008EF2FFFEE33FEEC33FCEE9DEC7B
:10034F00984005FCEE9DFE0FD5F0E9E4CEFD22EDC1
:10035F00F8F5F0EE8420D21CFEADF075F008EF2F0B
:10036F00FFED33FD4007985006D5F0F222C398FDFC
:05037F000FD5F0EA2299
:00000001FF
