:10018500D3EF9400EE9400400F7DFADDFE7DF7DDA0
:08019500FEEF1F70EB1E80E875
:01019D00223F
:10009D00EF14602C146048146064240360030201A3
:1000AD002BEB700D04A805088002C333D8FC4280E9
:1000BD00227401A805088002C333D8FCF4528022B3
:1000CD00EB700D04A805088002C333D8FC429022C2
:1000DD007401A805088002C333D8FCF4529022EBBA
:1000ED00700D04A805088002C333D8FC42A0227409
:1000FD0001A805088002C333D8FCF452A022EB708E
:10010D000D04A805088002C333D8FC42B022AF0508
:0F011D007401A807088002C333D8FCF452B02243
:10000300EF14602E14604C14606A24036003020032
:100013009A74017E00A805088005C333CE33CED879
:10002300F9FFAB80EF5B60047F0180027F00AC07C8
:10003300806574017E00A805088005C333CE33CEE6
:10004300D8F9FFAB90EF5B60047F0180027F00ACC7
:1000530007804474017E00A805088005C333CE33AE
:10006300CED8F9FFABA0EF5B60047F0180027F0075
:10007300AC078023AF0574017E00A807088005C381
:1000830033CE33CED8F9FFADB0EDFBEF5B60047F29
:090093000180027F00AC07AF04FC
:01009C002241
:1001D0008F80C2B4C2B5D2B67F027E00120185C242
:0201E000B62245
:10019E007F021201D07F381201D07F0E1201D07F64
:0901AE00061201D07F010201D00C
:1001E2008F80D2B4C2B5D2B67F027E00120185C220
:0201F200B62233
:100162008B098A0A890BAB09AA0AA90B1201B7FFEC
:1001720060101201E27401250BF50BE4350AF50A51
:0301820080E422F4
:0C01F4004C616C6A69204A6F73686900F6
:10012C0012019EE4F508E5082480FF1201D07BFF44
:10013C007A0179F41201627F207E031201857F011E
:10014C001201D0E508B40F03E4F5080508E508C36F
:06015C00941040D280CD9A
:03000000020200F9
:0C020000787FE4F6D8FD75810B02012C1C
:1001B700BB010689828A83E0225002E722BBFE0246
:0901C700E32289828A83E4932279
:00000001FF
