:10014B00D3EF9400EE9400400F7DFADDFE7D93DD3E
:08015B00FEEF1F70EB1E80E8AF
:010163002279
:1000B800EF14602D14604A14606724036003020182
:1000C8004ABB010E7401A805088002C333D8FC425C
:1000D80080227401A805088002C333D8FCF452803A
:1000E80022BB010E7401A805088002C333D8FC4264
:1000F80090227401A805088002C333D8FCF45290FA
:1001080022BB010E7401A805088002C333D8FC4243
:10011800A0227401A805088002C333D8FCF452A0B9
:1001280022BB010E7401A805088002C333D8FC4223
:10013800B022AF057401A807088002C333D8FCF4C5
:0301480052B02290
:10000300E4F508E508D394045020E4FBAD087F022F
:100013001200B87F647E0012014B7B01AD087F02A2
:100023001200B87F647E0012014BE508C3940440BC
:10003300207B01AD087F021200B87F647E001201AD
:100043004BE4FBAD087F021200B87F647E0012010F
:100053004B0508E508C3940840A9750807E508D3CC
:100063009400409CE508940440207B01AD087F0286
:100073001200B87F647E0012014BE4FBAD087F02DF
:100083001200B87F647E0012014BE508C39404504C
:1000930020E4FBAD087F021200B87F647E001201EA
:1000A3004B7B01AD087F021200B87F647E00120112
:0500B3004B150880A8B8
:0300000002016496
:0C016400787FE4F6D8FD758108020003E6
:00000001FF
