:100ACD00D3EF9400EE9400400F7DFADDFE7DF7DD4F
:080ADD00FEEF1F70EB1E80E824
:010AE50022EE
:1006AB00EF14602D14604A14606724036003020783
:1006BB003DBB010E7401A805088002C333D8FC4270
:1006CB0080227401A805088002C333D8FCF4528041
:1006DB0022BB010E7401A805088002C333D8FC426B
:1006EB0090227401A805088002C333D8FCF4529001
:1006FB0022BB010E7401A805088002C333D8FC424B
:10070B00A0227401A805088002C333D8FCF452A0C0
:10071B0022BB010E7401A805088002C333D8FC422A
:10072B00B022AF057401A807088002C333D8FCF4CC
:03073B0052B02297
:10061100EF14602E14604C14606A24036003020618
:10062100A874017E00A805088005C333CE33CED857
:10063100F9FFAB80EF5B60047F0180027F00AC07B4
:10064100806574017E00A805088005C333CE33CED2
:10065100D8F9FFAB90EF5B60047F0180027F00ACB3
:1006610007804474017E00A805088005C333CE339A
:10067100CED8F9FFABA0EF5B60047F0180027F0061
:10068100AC078023AF0574017E00A807088005C36D
:1006910033CE33CED8F9FFADB0EDFBEF5B60047F15
:0906A1000180027F00AC07AF04E8
:0106AA00222D
:100AFF008F80C2B4C2B5D2B67F027E00120ACDC2B9
:020B0F00B6220C
:100AE6007F02120AFF7F38120AFF7F0E120AFF7F6B
:090AF60006120AFF7F01020AFF4B
:100B11008F80D2B4C2B5D2B67F027E00120ACDC296
:020B2100B622FA
:100A38008B488A49894AAB48AA49A94A1201FDFF4D
:100A48006010120B117401254AF54AE43549F5493D
:030A580080E42215
:0403F9008E108F11C2
:1003FD00E4F512F513F514F515C3E510648094803A
:10040D0050107F2D120B11C3E49511F511E49510C9
:10041D00F510E511451070057F30020B11E5114502
:10042D001060370515E51570020514AE10AF117C7F
:10043D00007D0A12027DAA04AB05AE12AF137C003B
:10044D007D0A120216EF2BF513EE3AF512AE10AF30
:10045D001112027D8E108F1180C3E4FBE51545143A
:10046D00602FAE12AF137C007D0A12027DED243099
:10047D00FF74162BF8A607E515151570021514AEA9
:10048D0012AF137C007D0A12027D8E128F130B802A
:0F049D00CB74162BF8E4F6FB7A007916120A38A6
:0104AC00222D
:10091300439850438920EF8EF01202FB093B12C02B
:1009230009401C2009452580094A3840094F708039
:100933000954E1000000095A758DFA801A758DFC7F
:100943008015758DFD8010758DFE800B758DFF8074
:0A09530006758DFF758780D28E2295
:080B67008F993099FDC299221B
:080B6F003098FDC298AF9922F5
:100A13008B108A118912AB10AA11A9121201FD6061
:100A2300130512E5127002051114F91201FDFF12EC
:050A33000B6780E222C8
:100B2300E4F553438901F58CF58AD2AFD2A9D28C6F
:010B3300229F
:03000B000204AD3F
:1004AD00C0E0C0F0C083C082C0D075D000C000C015
:1004BD0001C002C003C004C005C006C007C28C7DC8
:1004CD00077F02120611EF64017026FB7D077F0284
:1004DD001206ABE4FB7D067F021206ABAF53EF3382
:1004ED0095E08F4EF54DF54CF54BAF4EFEAD4C8076
:1004FD002D7B017D077F021206AB7B017D067F02FE
:10050D001206ABAF53EF3395E0FEC374FF9FFFE4CC
:10051D009EFE3395E08F4E8E4DF54CF54BFDAC4B5D
:10052D0078081202E8C374FF9FFF8F8CC374FF9588
:10053D004EFF8F8AC28DD28CD007D006D005D00445
:10054D00D003D002D001D000D0D0D082D083D0F053
:03055D00D0E032B9
:0A0B5300E4F550D2A8D2AFD28822F8
:03000300020006F2
:0300060005503270
:0A0B5D00E4F551D2AAD2AFD28A22E9
:0300130002000EDA
:03000E0005513267
:10085900E4FDFCC293C290D292D290C290D292D2BD
:1008690090C290D292D290C290C292D290C290C2BB
:1008790092D290C290D292D290C290D292D2907BD0
:100889000BC29030911574017E00A803088005C33E
:1008990033CE33CED8F94205EE4204D2901BC3EBD6
:0C08A9006480948050DBD293AE04AF0555
:0108B5002220
:1008B600E4FDFCC293C290D292D290C290D292D260
:1008C60090C290D292D290C290D292D290C290C24E
:1008D60092D290C290D292D290C290D292D2907B73
:1008E6000BC29030911574017E00A803088005C3E1
:1008F60033CE33CED8F94205EE4204D2901BC3EB79
:0C0906006480948050DBD293AE04AF05F7
:0109120022C2
:10073E002A5354415254204341522A00503A2D001C
:10074E004C3A2D0044455445435445442E2E2E001C
:10075E00504552534F4E452044455445435445440D
:10076E0020414C434F484F4C450D0A0053544F50B7
:10077E00204341520D0A0043415220495320535405
:10078E004F500D0A00434F4D504C455445442E2EAC
:10079E002E2E2E2E0D0A004E4F5420444554454306
:1007AE005445442E2E2E002A53544F50204341526E
:0F07BE002A002A524556455253204341522A00E1
:100A5B00E4FB7D047F021206AB7F01120AFF7BFFD2
:0E0A6B007A07793E120A387FC87E00020ACD53
:100560007F01120AFF120859E48F0B8E0AF509F574
:10057000087BFF7A07794A120A38AE0AAF0B1203DA
:10058000F97F89120AFF7BFF7A07794E120A381227
:1005900008B6E48F0F8E0EF50DF50C1203F9AF0FB0
:1005A000AE0EAD0DAC0CE412011C7BB67AF3797D76
:1005B000783D12001612015A8F53E47FDC7E05FD50
:1005C000FCAB0BAA0AA909A808D31202D77FC04026
:1005D00033120AFF7BFF7A077952120A387BFF7ABF
:1005E00007795E120A137BFF7A07797A120A137B66
:1005F000FF7A077985120A137BFF7A077993120A2B
:10060000130209DD120AFF7BFF7A0779A5120A3867
:0106100022C7
:1009DD007B017D047F021206AB7B017D057F021238
:1009ED0006AB7B017D077F021206AB7B017D067F87
:1009FD00021206AB7F01120AFF7BFF7A0779B5124F
:060A0D000A38C2AF80FEB2
:100A7900E4FB7D057F021206AB7F01120AFF7BFFB3
:0E0A89007A0779C0120A387FC87E00020ACDB3
:100AB300444953543A2D0020636D0053746F702ED4
:0A0AC3002E2E53746F702E2E2E009D
:10032800E4F508F509438901F58AF58CD28C43A0D8
:10033800011209A07508008F097F01120AFF7BFFCF
:100348007A0A79B3120A38AF09AE081203F97BFFAB
:100358007A0A79BA120A38C3E509940FE5089400B5
:10036800502E7B017D057F021206AB7FC0120AFF6B
:100378007BFF7A0A79BE120A387F647E00120ACDA2
:10038800E4FB7D057F021206AB7F647E00120ACD76
:10039800D3E509940FE5089400402AE5099423E57C
:1003A80008940050207B017D057F021206AB7FF484
:1003B8007E01120ACDE4FB7D057F021206AB7FF4B5
:1003C8007E01120ACDD3E5099423E5089400402064
:1003D8007B017D057F021206AB7FE87E03120ACD02
:1003E800E4FB7D057F021206AB7FE87E03120ACD8F
:0103F80022E2
:1009A000120B4430A0FD20A0FD858C83858A8275C2
:1009B0008AFF758CFFAF82AE83E4FCFD7B707A9476
:1009C000F9F8D31202C1400FAF82AE837C007D3BA9
:0C09D0001202288F0A8003E4F50AAF0A27
:0109DC0022F8
:0E0B4400E4F58AF58CD2A1FF0FBF03FCC2A11D
:010B52002280
:080B7700120A9712095D80FBD0
:100B34004B455920544F2053544152542E2E2E00CD
:060B7F00015200014F00CD
:100A9700120AE6120B53120B5D120B237F807E2581
:0C0AA7001209137BFF7A0B7934020A3825
:10095D00E550B401140552E552B40103120A5B12BD
:10096D0005607FC87E00120ACDE55175F0021201B7
:10097D00DBAFF0EF601C054FE54FB40103120A79B0
:10098D00E55175F0021201DBAFF0EF60051203289F
:03099D0080EE22C7
:10001600EC4D6011E8497017ED33EC3304600DE4E4
:10002600FCFFFEFD22E933E8330470F80201C61234
:10003600019158046009E4CC248150062850090235
:1000460001D02840030201CDC0E0EB4A7044B980DC
:1000560006D0E0FB0201BCEF4E701CBD8008EBFF32
:10006600EAFEE9FD80EBE98DF0A4FEE5F00200FF73
:10007600E9CDF9EAFEEBFFEF89F0A4FCE5F0CE89C5
:10008600F0A42EFFE435F0CD89F0A42DFEE435F082
:100096008067EF4E7005BD80D780C3EF8BF0A4ACB0
:1000A600F0EE8BF0A42CFCE435F0F8EF8AF0A42CEB
:1000B600E5F038FCE433CB8DF0A42CFCE5F03BF8FE
:1000C600EE8AF0A42CFCE5F038F8E433CF89F0A4EE
:1000D6002CFCE5F038CF3400CE89F0A42FFFE5F0F4
:1000E6003EFEE433C98DF0A42EFEE5F039CD8AF04C
:1000F600A42FFFE5F03EFEE43DFD33D0E0FB5007C4
:100106000BBB000F0201D0EC2CFCEF33FFEE33FEED
:06011600ED33FD0201A81B
:10011C0075F020800E75F010800575F0087D007E5E
:10012C00007F003392D530D5031202B3EC3340106C
:10013C00EF33FFEE33FEED33FDEC33FCD5F0ED2267
:0E014C00E5F0247EA2D513CC92E7CDCEFF22A3
:10015A00EDD2E7CD33EC3392D524814006E4FFFE9D
:10016A00FDFC22FCE4CFCECDCC24E0501174FF80FC
:10017A00EDC3CC13CCCD13CDCE13CECF13CF047099
:07018A00F030D5DE0202B3E4
:10019100E9D2E7C933E833F892D5EDD2E7CD33ECB4
:0701A10033FC5002B2D5222D
:1001A800EC30E7100FBF000C0EBE00080DBD0004B8
:1001B8000BEB6014A2D5EB13FCED92E7FD2274FF64
:1001C800FCFDFEFF22E480F8A2D574FF13FC7D80BD
:0301D800E480EFD1
:030000000207CD27
:0C07CD00787FE4F6D8FD75815302081413
:1001DB00C2D530F707B2D563F0FF05F030E70CB2AC
:1001EB00D5F4048463F0FF05F080018430D502F46C
:0201FB000422DC
:1001FD00BB010689828A83E0225002E722BBFE0200
:09020D00E32289828A83E4932232
:10021600EF8DF0A4A8F0CF8CF0A428CE8DF0A42EFC
:02022600FE22B6
:10022800BC000BBE0029EF8DF084FFADF022E4CCBA
:10023800F875F008EF2FFFEE33FEEC33FCEE9DEC83
:10024800984005FCEE9DFE0FD5F0E9E4CEFD22EDC9
:10025800F8F5F0EE8420D21CFEADF075F008EF2F13
:10026800FFED33FD4007985006D5F0F222C398FD04
:050278000FD5F0EA22A1
:10027D00C2D5EC30E709B2D5E4C39DFDE49CFCEE9C
:10028D0030E715B2D5E4C39FFFE49EFE120228C3EA
:10029D00E49DFDE49CFC800312022830D507C3E4E5
:0602AD009FFFE49EFE220B
:0E02B300C3E49FFFE49EFEE49DFDE49CFC225C
:1002C100EB9FF5F0EA9E42F0E99D42F0EC6480C8B4
:0602D10064809845F02254
:1002D700EB9FF5F0EA9E42F0E99D42F0E89C45F07D
:0102E70022F4
:1002E800E8600FECC313FCED13FDEE13FEEF13FFF4
:0302F800D8F12218
:1002FB00D083D082F8E4937012740193700DA3A392
:10030B0093F8740193F5828883E473740293B5F0C8
:0D031B00067403936860E9A3A3A3A380D830
:1007D900020B77E493A3F8E493A34003F68001F2B4
:1007E90008DFF48029E493A3F85407240CC8C33321
:1007F900C4540F4420C8834004F456800146F6DFF0
:10080900E4800B0102040810204080900B7FE47EF5
:10081900019360BCA3FF543F30E509541FFEE493E4
:10082900A360010ECF54C025E060A840B8E493A3AB
:10083900FAE493A3F8E493A3C8C582C8CAC583CAD6
:10084900F0A3C8C582C8CAC583CADFE9DEE780BE8E
:010B8500006F
:00000001FF
