:10013B00D3EF9400EE9400400F7DFADDFE7DF7DDEA
:08014B00FEEF1F70EB1E80E8BF
:010153002289
:100165003132334134353642373839432330404410
:10000300C2A3C2A2C2A1C2A0D2A7D2A6D2A5D2A481
:10001300A2A582A482A682A740F67F327E001201A7
:100023003BC2A0D2A3D2A2D2A1A2A582A482A682BD
:10003300A74005E4F5088043C2A1D2A3D2A2D2A06F
:10004300A2A582A482A682A74005750801802CC2BE
:10005300A2D2A3D2A0D2A1A2A582A482A682A740A3
:10006300057508028015C2A3D2A0D2A2D2A1A2A56F
:1000730082A482A682A7400375080320A405E4F5A1
:1000830009801620A505750901800E20A6057509AE
:1000930002800620A703750903A2A582A482A68273
:1000A300A750F6E50825E025E02465F582E4340150
:1000B300F583E5822509F582E43583F583E493FF2F
:0100C300221A
:1000C400759850438920EF8EF012010E00EC12C097
:1000D40000F11C2000F6258000FB384001007080F0
:1000E4000105E1000000010B758DFA801A758DFC85
:1000F4008015758DFD8010758DFE800B758DFF80CC
:0A01040006758DFF758780D28E22EC
:080181008F993099FDC299220B
:080189003098FDC298AF9922E5
:100154007F807E251200C41201898F0A12018180DA
:01016400F6A4
:0300000002017585
:0C017500787FE4F6D8FD75810A02015481
:10010E00D083D082F8E4937012740193700DA3A380
:10011E0093F8740193F5828883E473740293B5F0B7
:0D012E00067403936860E9A3A3A3A380D81F
:00000001FF
