:10016700EF4E600F7DFADDFE7DF7DDFEEF1F70F0CD
:030177001E80EDFA
:01017A002262
:10009D00EF14602D14604A1460672403600302019D
:1000AD002FBB010E7401A805088002C333D8FC4292
:1000BD0080227401A805088002C333D8FCF4528055
:1000CD0022BB010E7401A805088002C333D8FC427F
:1000DD0090227401A805088002C333D8FCF4529015
:1000ED0022BB010E7401A805088002C333D8FC425F
:1000FD00A0227401A805088002C333D8FCF452A0D5
:10010D0022BB010E7401A805088002C333D8FC423E
:10011D00B022AF057401A807088002C333D8FCF4E0
:03012D0052B022AB
:10000300EF14602E14604C14606A24036003020032
:100013009A74017E00A805088005C333CE33CED879
:10002300F9FFAB80EF5B60047F0180027F00AC07C8
:10003300806574017E00A805088005C333CE33CEE6
:10004300D8F9FFAB90EF5B60047F0180027F00ACC7
:1000530007804474017E00A805088005C333CE33AE
:10006300CED8F9FFABA0EF5B60047F0180027F0075
:10007300AC078023AF0574017E00A807088005C381
:1000830033CE33CED8F9FFADB0EDFBEF5B60047F29
:090093000180027F00AC07AF04FC
:01009C002241
:10013000E4F508E4F508E508C3943B50F67D077F35
:1001400002120003EF70150508FBFD7F0212009DEF
:100150007D077F02120003EF70DC80F47B01E4FD79
:070160007F0212009D80CF19
:0300000002017B7F
:0C017B00787FE4F6D8FD758108020130A1
:00000001FF
